{
	"contracts/5_FunctionType.sol": {
		"FunctionType": {
			"abi": [
				{
					"inputs": [],
					"name": "_number",
					"outputs": [
						{
							"internalType": "uint256",
							"name": "",
							"type": "uint256"
						}
					],
					"stateMutability": "view",
					"type": "function"
				},
				{
					"inputs": [],
					"name": "add",
					"outputs": [],
					"stateMutability": "nonpayable",
					"type": "function"
				},
				{
					"inputs": [
						{
							"internalType": "uint256",
							"name": "num",
							"type": "uint256"
						}
					],
					"name": "addPure",
					"outputs": [
						{
							"internalType": "uint256",
							"name": "new_number",
							"type": "uint256"
						}
					],
					"stateMutability": "pure",
					"type": "function"
				},
				{
					"inputs": [],
					"name": "addView",
					"outputs": [
						{
							"internalType": "uint256",
							"name": "new_num",
							"type": "uint256"
						}
					],
					"stateMutability": "view",
					"type": "function"
				},
				{
					"inputs": [],
					"name": "minusCall",
					"outputs": [],
					"stateMutability": "nonpayable",
					"type": "function"
				},
				{
					"inputs": [],
					"name": "minusPayable",
					"outputs": [
						{
							"internalType": "uint256",
							"name": "balance",
							"type": "uint256"
						}
					],
					"stateMutability": "payable",
					"type": "function"
				}
			],
			"devdoc": {
				"kind": "dev",
				"methods": {},
				"version": 1
			},
			"evm": {
				"assembly": "    /* \"contracts/5_FunctionType.sol\":66:847  contract FunctionType{... */\n  mstore(0x40, 0x80)\n    /* \"contracts/5_FunctionType.sol\":117:118  5 */\n  0x05\n    /* \"contracts/5_FunctionType.sol\":94:118  uint256 public _number=5 */\n  0x00\n  sstore\n    /* \"contracts/5_FunctionType.sol\":66:847  contract FunctionType{... */\n  callvalue\n  dup1\n  iszero\n  tag_1\n  jumpi\n  revert(0x00, 0x00)\ntag_1:\n  pop\n  dataSize(sub_0)\n  dup1\n  dataOffset(sub_0)\n  0x00\n  codecopy\n  0x00\n  return\nstop\n\nsub_0: assembly {\n        /* \"contracts/5_FunctionType.sol\":66:847  contract FunctionType{... */\n      mstore(0x40, 0x80)\n      jumpi(tag_1, lt(calldatasize, 0x04))\n      shr(0xe0, calldataload(0x00))\n      dup1\n      0x303810a6\n      eq\n      tag_2\n      jumpi\n      dup1\n      0x4f2be91f\n      eq\n      tag_3\n      jumpi\n      dup1\n      0x7032c4f2\n      eq\n      tag_4\n      jumpi\n      dup1\n      0x80b4ea08\n      eq\n      tag_5\n      jumpi\n      dup1\n      0xb262eb7f\n      eq\n      tag_6\n      jumpi\n      dup1\n      0xf9bd55cc\n      eq\n      tag_7\n      jumpi\n    tag_1:\n      revert(0x00, 0x00)\n        /* \"contracts/5_FunctionType.sol\":685:842  function minusPayable() external payable returns (uint256 balance){... */\n    tag_2:\n      tag_8\n      tag_9\n      jump\t// in\n    tag_8:\n      mload(0x40)\n      tag_10\n      swap2\n      swap1\n      tag_11\n      jump\t// in\n    tag_10:\n      mload(0x40)\n      dup1\n      swap2\n      sub\n      swap1\n      return\n        /* \"contracts/5_FunctionType.sol\":125:189  function add() external {... */\n    tag_3:\n      callvalue\n      dup1\n      iszero\n      tag_12\n      jumpi\n      revert(0x00, 0x00)\n    tag_12:\n      pop\n      tag_13\n      tag_14\n      jump\t// in\n    tag_13:\n      stop\n        /* \"contracts/5_FunctionType.sol\":249:385  function addPure(uint256 num) external pure  returns(uint256 new_number) {... */\n    tag_4:\n      callvalue\n      dup1\n      iszero\n      tag_15\n      jumpi\n      revert(0x00, 0x00)\n    tag_15:\n      pop\n      tag_16\n      0x04\n      dup1\n      calldatasize\n      sub\n      dup2\n      add\n      swap1\n      tag_17\n      swap2\n      swap1\n      tag_18\n      jump\t// in\n    tag_17:\n      tag_19\n      jump\t// in\n    tag_16:\n      mload(0x40)\n      tag_20\n      swap2\n      swap1\n      tag_11\n      jump\t// in\n    tag_20:\n      mload(0x40)\n      dup1\n      swap2\n      sub\n      swap1\n      return\n        /* \"contracts/5_FunctionType.sol\":624:679  function minusCall() external{... */\n    tag_5:\n      callvalue\n      dup1\n      iszero\n      tag_21\n      jumpi\n      revert(0x00, 0x00)\n    tag_21:\n      pop\n      tag_22\n      tag_23\n      jump\t// in\n    tag_22:\n      stop\n        /* \"contracts/5_FunctionType.sol\":427:547  function addView() external view returns (uint256 new_num) {... */\n    tag_6:\n      callvalue\n      dup1\n      iszero\n      tag_24\n      jumpi\n      revert(0x00, 0x00)\n    tag_24:\n      pop\n      tag_25\n      tag_26\n      jump\t// in\n    tag_25:\n      mload(0x40)\n      tag_27\n      swap2\n      swap1\n      tag_11\n      jump\t// in\n    tag_27:\n      mload(0x40)\n      dup1\n      swap2\n      sub\n      swap1\n      return\n        /* \"contracts/5_FunctionType.sol\":94:118  uint256 public _number=5 */\n    tag_7:\n      callvalue\n      dup1\n      iszero\n      tag_28\n      jumpi\n      revert(0x00, 0x00)\n    tag_28:\n      pop\n      tag_29\n      tag_30\n      jump\t// in\n    tag_29:\n      mload(0x40)\n      tag_31\n      swap2\n      swap1\n      tag_11\n      jump\t// in\n    tag_31:\n      mload(0x40)\n      dup1\n      swap2\n      sub\n      swap1\n      return\n        /* \"contracts/5_FunctionType.sol\":685:842  function minusPayable() external payable returns (uint256 balance){... */\n    tag_9:\n        /* \"contracts/5_FunctionType.sol\":735:750  uint256 balance */\n      0x00\n        /* \"contracts/5_FunctionType.sol\":762:769  minus() */\n      tag_33\n        /* \"contracts/5_FunctionType.sol\":762:767  minus */\n      tag_34\n        /* \"contracts/5_FunctionType.sol\":762:769  minus() */\n      jump\t// in\n    tag_33:\n        /* \"contracts/5_FunctionType.sol\":788:809  address(this).balance */\n      selfbalance\n        /* \"contracts/5_FunctionType.sol\":780:809  balance=address(this).balance */\n      swap1\n      pop\n        /* \"contracts/5_FunctionType.sol\":685:842  function minusPayable() external payable returns (uint256 balance){... */\n      swap1\n      jump\t// out\n        /* \"contracts/5_FunctionType.sol\":125:189  function add() external {... */\n    tag_14:\n        /* \"contracts/5_FunctionType.sol\":180:181  1 */\n      0x01\n        /* \"contracts/5_FunctionType.sol\":170:177  _number */\n      sload(0x00)\n        /* \"contracts/5_FunctionType.sol\":170:181  _number + 1 */\n      tag_36\n      swap2\n      swap1\n      tag_37\n      jump\t// in\n    tag_36:\n        /* \"contracts/5_FunctionType.sol\":160:167  _number */\n      0x00\n        /* \"contracts/5_FunctionType.sol\":160:181  _number = _number + 1 */\n      dup2\n      swap1\n      sstore\n      pop\n        /* \"contracts/5_FunctionType.sol\":125:189  function add() external {... */\n      jump\t// out\n        /* \"contracts/5_FunctionType.sol\":249:385  function addPure(uint256 num) external pure  returns(uint256 new_number) {... */\n    tag_19:\n        /* \"contracts/5_FunctionType.sol\":302:320  uint256 new_number */\n      0x00\n        /* \"contracts/5_FunctionType.sol\":348:349  1 */\n      0x01\n        /* \"contracts/5_FunctionType.sol\":344:347  num */\n      dup3\n        /* \"contracts/5_FunctionType.sol\":344:349  num+1 */\n      tag_39\n      swap2\n      swap1\n      tag_37\n      jump\t// in\n    tag_39:\n        /* \"contracts/5_FunctionType.sol\":333:349  new_number=num+1 */\n      swap1\n      pop\n        /* \"contracts/5_FunctionType.sol\":249:385  function addPure(uint256 num) external pure  returns(uint256 new_number) {... */\n      swap2\n      swap1\n      pop\n      jump\t// out\n        /* \"contracts/5_FunctionType.sol\":624:679  function minusCall() external{... */\n    tag_23:\n        /* \"contracts/5_FunctionType.sol\":664:671  minus() */\n      tag_41\n        /* \"contracts/5_FunctionType.sol\":664:669  minus */\n      tag_34\n        /* \"contracts/5_FunctionType.sol\":664:671  minus() */\n      jump\t// in\n    tag_41:\n        /* \"contracts/5_FunctionType.sol\":624:679  function minusCall() external{... */\n      jump\t// out\n        /* \"contracts/5_FunctionType.sol\":427:547  function addView() external view returns (uint256 new_num) {... */\n    tag_26:\n        /* \"contracts/5_FunctionType.sol\":469:484  uint256 new_num */\n      0x00\n        /* \"contracts/5_FunctionType.sol\":513:514  1 */\n      0x01\n        /* \"contracts/5_FunctionType.sol\":505:512  _number */\n      sload(0x00)\n        /* \"contracts/5_FunctionType.sol\":505:514  _number+1 */\n      tag_43\n      swap2\n      swap1\n      tag_37\n      jump\t// in\n    tag_43:\n        /* \"contracts/5_FunctionType.sol\":497:514  new_num=_number+1 */\n      swap1\n      pop\n        /* \"contracts/5_FunctionType.sol\":427:547  function addView() external view returns (uint256 new_num) {... */\n      swap1\n      jump\t// out\n        /* \"contracts/5_FunctionType.sol\":94:118  uint256 public _number=5 */\n    tag_30:\n      sload(0x00)\n      dup2\n      jump\t// out\n        /* \"contracts/5_FunctionType.sol\":553:618  function minus() internal{... */\n    tag_34:\n        /* \"contracts/5_FunctionType.sol\":609:610  1 */\n      0x01\n        /* \"contracts/5_FunctionType.sol\":599:606  _number */\n      sload(0x00)\n        /* \"contracts/5_FunctionType.sol\":599:610  _number + 1 */\n      tag_45\n      swap2\n      swap1\n      tag_37\n      jump\t// in\n    tag_45:\n        /* \"contracts/5_FunctionType.sol\":589:596  _number */\n      0x00\n        /* \"contracts/5_FunctionType.sol\":589:610  _number = _number + 1 */\n      dup2\n      swap1\n      sstore\n      pop\n        /* \"contracts/5_FunctionType.sol\":553:618  function minus() internal{... */\n      jump\t// out\n        /* \"#utility.yul\":7:84   */\n    tag_46:\n        /* \"#utility.yul\":44:51   */\n      0x00\n        /* \"#utility.yul\":73:78   */\n      dup2\n        /* \"#utility.yul\":62:78   */\n      swap1\n      pop\n        /* \"#utility.yul\":7:84   */\n      swap2\n      swap1\n      pop\n      jump\t// out\n        /* \"#utility.yul\":90:208   */\n    tag_47:\n        /* \"#utility.yul\":177:201   */\n      tag_57\n        /* \"#utility.yul\":195:200   */\n      dup2\n        /* \"#utility.yul\":177:201   */\n      tag_46\n      jump\t// in\n    tag_57:\n        /* \"#utility.yul\":172:175   */\n      dup3\n        /* \"#utility.yul\":165:202   */\n      mstore\n        /* \"#utility.yul\":90:208   */\n      pop\n      pop\n      jump\t// out\n        /* \"#utility.yul\":214:436   */\n    tag_11:\n        /* \"#utility.yul\":307:311   */\n      0x00\n        /* \"#utility.yul\":345:347   */\n      0x20\n        /* \"#utility.yul\":334:343   */\n      dup3\n        /* \"#utility.yul\":330:348   */\n      add\n        /* \"#utility.yul\":322:348   */\n      swap1\n      pop\n        /* \"#utility.yul\":358:429   */\n      tag_59\n        /* \"#utility.yul\":426:427   */\n      0x00\n        /* \"#utility.yul\":415:424   */\n      dup4\n        /* \"#utility.yul\":411:428   */\n      add\n        /* \"#utility.yul\":402:408   */\n      dup5\n        /* \"#utility.yul\":358:429   */\n      tag_47\n      jump\t// in\n    tag_59:\n        /* \"#utility.yul\":214:436   */\n      swap3\n      swap2\n      pop\n      pop\n      jump\t// out\n        /* \"#utility.yul\":523:640   */\n    tag_49:\n        /* \"#utility.yul\":632:633   */\n      0x00\n        /* \"#utility.yul\":629:630   */\n      0x00\n        /* \"#utility.yul\":622:634   */\n      revert\n        /* \"#utility.yul\":769:891   */\n    tag_51:\n        /* \"#utility.yul\":842:866   */\n      tag_64\n        /* \"#utility.yul\":860:865   */\n      dup2\n        /* \"#utility.yul\":842:866   */\n      tag_46\n      jump\t// in\n    tag_64:\n        /* \"#utility.yul\":835:840   */\n      dup2\n        /* \"#utility.yul\":832:867   */\n      eq\n        /* \"#utility.yul\":822:885   */\n      tag_65\n      jumpi\n        /* \"#utility.yul\":881:882   */\n      0x00\n        /* \"#utility.yul\":878:879   */\n      0x00\n        /* \"#utility.yul\":871:883   */\n      revert\n        /* \"#utility.yul\":822:885   */\n    tag_65:\n        /* \"#utility.yul\":769:891   */\n      pop\n      jump\t// out\n        /* \"#utility.yul\":897:1036   */\n    tag_52:\n        /* \"#utility.yul\":943:948   */\n      0x00\n        /* \"#utility.yul\":981:987   */\n      dup2\n        /* \"#utility.yul\":968:988   */\n      calldataload\n        /* \"#utility.yul\":959:988   */\n      swap1\n      pop\n        /* \"#utility.yul\":997:1030   */\n      tag_67\n        /* \"#utility.yul\":1024:1029   */\n      dup2\n        /* \"#utility.yul\":997:1030   */\n      tag_51\n      jump\t// in\n    tag_67:\n        /* \"#utility.yul\":897:1036   */\n      swap3\n      swap2\n      pop\n      pop\n      jump\t// out\n        /* \"#utility.yul\":1042:1371   */\n    tag_18:\n        /* \"#utility.yul\":1101:1107   */\n      0x00\n        /* \"#utility.yul\":1150:1152   */\n      0x20\n        /* \"#utility.yul\":1138:1147   */\n      dup3\n        /* \"#utility.yul\":1129:1136   */\n      dup5\n        /* \"#utility.yul\":1125:1148   */\n      sub\n        /* \"#utility.yul\":1121:1153   */\n      slt\n        /* \"#utility.yul\":1118:1237   */\n      iszero\n      tag_69\n      jumpi\n        /* \"#utility.yul\":1156:1235   */\n      tag_70\n      tag_49\n      jump\t// in\n    tag_70:\n        /* \"#utility.yul\":1118:1237   */\n    tag_69:\n        /* \"#utility.yul\":1276:1277   */\n      0x00\n        /* \"#utility.yul\":1301:1354   */\n      tag_71\n        /* \"#utility.yul\":1346:1353   */\n      dup5\n        /* \"#utility.yul\":1337:1343   */\n      dup3\n        /* \"#utility.yul\":1326:1335   */\n      dup6\n        /* \"#utility.yul\":1322:1344   */\n      add\n        /* \"#utility.yul\":1301:1354   */\n      tag_52\n      jump\t// in\n    tag_71:\n        /* \"#utility.yul\":1291:1354   */\n      swap2\n      pop\n        /* \"#utility.yul\":1247:1364   */\n      pop\n        /* \"#utility.yul\":1042:1371   */\n      swap3\n      swap2\n      pop\n      pop\n      jump\t// out\n        /* \"#utility.yul\":1377:1557   */\n    tag_53:\n        /* \"#utility.yul\":1425:1502   */\n      0x4e487b7100000000000000000000000000000000000000000000000000000000\n        /* \"#utility.yul\":1422:1423   */\n      0x00\n        /* \"#utility.yul\":1415:1503   */\n      mstore\n        /* \"#utility.yul\":1522:1526   */\n      0x11\n        /* \"#utility.yul\":1519:1520   */\n      0x04\n        /* \"#utility.yul\":1512:1527   */\n      mstore\n        /* \"#utility.yul\":1546:1550   */\n      0x24\n        /* \"#utility.yul\":1543:1544   */\n      0x00\n        /* \"#utility.yul\":1536:1551   */\n      revert\n        /* \"#utility.yul\":1563:1754   */\n    tag_37:\n        /* \"#utility.yul\":1603:1606   */\n      0x00\n        /* \"#utility.yul\":1622:1642   */\n      tag_74\n        /* \"#utility.yul\":1640:1641   */\n      dup3\n        /* \"#utility.yul\":1622:1642   */\n      tag_46\n      jump\t// in\n    tag_74:\n        /* \"#utility.yul\":1617:1642   */\n      swap2\n      pop\n        /* \"#utility.yul\":1656:1676   */\n      tag_75\n        /* \"#utility.yul\":1674:1675   */\n      dup4\n        /* \"#utility.yul\":1656:1676   */\n      tag_46\n      jump\t// in\n    tag_75:\n        /* \"#utility.yul\":1651:1676   */\n      swap3\n      pop\n        /* \"#utility.yul\":1699:1700   */\n      dup3\n        /* \"#utility.yul\":1696:1697   */\n      dup3\n        /* \"#utility.yul\":1692:1701   */\n      add\n        /* \"#utility.yul\":1685:1701   */\n      swap1\n      pop\n        /* \"#utility.yul\":1720:1723   */\n      dup1\n        /* \"#utility.yul\":1717:1718   */\n      dup3\n        /* \"#utility.yul\":1714:1724   */\n      gt\n        /* \"#utility.yul\":1711:1747   */\n      iszero\n      tag_76\n      jumpi\n        /* \"#utility.yul\":1727:1745   */\n      tag_77\n      tag_53\n      jump\t// in\n    tag_77:\n        /* \"#utility.yul\":1711:1747   */\n    tag_76:\n        /* \"#utility.yul\":1563:1754   */\n      swap3\n      swap2\n      pop\n      pop\n      jump\t// out\n\n    auxdata: 0xa26469706673582212202ee1c06f74a1842f1ce489b7a8684dab65f80e14447946c04cb996c584f3f34e64736f6c634300081e0033\n}\n",
				"bytecode": {
					"linkReferences": {},
					"object": "608060405260055f553480156012575f5ffd5b506102c3806100205f395ff3fe608060405260043610610054575f3560e01c8063303810a6146100585780634f2be91f146100765780637032c4f21461008c57806380b4ea08146100c8578063b262eb7f146100de578063f9bd55cc14610108575b5f5ffd5b610060610132565b60405161006d91906101bb565b60405180910390f35b348015610081575f5ffd5b5061008a610141565b005b348015610097575f5ffd5b506100b260048036038101906100ad9190610202565b610156565b6040516100bf91906101bb565b60405180910390f35b3480156100d3575f5ffd5b506100dc61016b565b005b3480156100e9575f5ffd5b506100f2610175565b6040516100ff91906101bb565b60405180910390f35b348015610113575f5ffd5b5061011c610189565b60405161012991906101bb565b60405180910390f35b5f61013b61018e565b47905090565b60015f5461014f919061025a565b5f81905550565b5f600182610164919061025a565b9050919050565b61017361018e565b565b5f60015f54610184919061025a565b905090565b5f5481565b60015f5461019c919061025a565b5f81905550565b5f819050919050565b6101b5816101a3565b82525050565b5f6020820190506101ce5f8301846101ac565b92915050565b5f5ffd5b6101e1816101a3565b81146101eb575f5ffd5b50565b5f813590506101fc816101d8565b92915050565b5f60208284031215610217576102166101d4565b5b5f610224848285016101ee565b91505092915050565b7f4e487b71000000000000000000000000000000000000000000000000000000005f52601160045260245ffd5b5f610264826101a3565b915061026f836101a3565b92508282019050808211156102875761028661022d565b5b9291505056fea26469706673582212202ee1c06f74a1842f1ce489b7a8684dab65f80e14447946c04cb996c584f3f34e64736f6c634300081e0033",
					"opcodes": "PUSH1 0x80 PUSH1 0x40 MSTORE PUSH1 0x5 PUSH0 SSTORE CALLVALUE DUP1 ISZERO PUSH1 0x12 JUMPI PUSH0 PUSH0 REVERT JUMPDEST POP PUSH2 0x2C3 DUP1 PUSH2 0x20 PUSH0 CODECOPY PUSH0 RETURN INVALID PUSH1 0x80 PUSH1 0x40 MSTORE PUSH1 0x4 CALLDATASIZE LT PUSH2 0x54 JUMPI PUSH0 CALLDATALOAD PUSH1 0xE0 SHR DUP1 PUSH4 0x303810A6 EQ PUSH2 0x58 JUMPI DUP1 PUSH4 0x4F2BE91F EQ PUSH2 0x76 JUMPI DUP1 PUSH4 0x7032C4F2 EQ PUSH2 0x8C JUMPI DUP1 PUSH4 0x80B4EA08 EQ PUSH2 0xC8 JUMPI DUP1 PUSH4 0xB262EB7F EQ PUSH2 0xDE JUMPI DUP1 PUSH4 0xF9BD55CC EQ PUSH2 0x108 JUMPI JUMPDEST PUSH0 PUSH0 REVERT JUMPDEST PUSH2 0x60 PUSH2 0x132 JUMP JUMPDEST PUSH1 0x40 MLOAD PUSH2 0x6D SWAP2 SWAP1 PUSH2 0x1BB JUMP JUMPDEST PUSH1 0x40 MLOAD DUP1 SWAP2 SUB SWAP1 RETURN JUMPDEST CALLVALUE DUP1 ISZERO PUSH2 0x81 JUMPI PUSH0 PUSH0 REVERT JUMPDEST POP PUSH2 0x8A PUSH2 0x141 JUMP JUMPDEST STOP JUMPDEST CALLVALUE DUP1 ISZERO PUSH2 0x97 JUMPI PUSH0 PUSH0 REVERT JUMPDEST POP PUSH2 0xB2 PUSH1 0x4 DUP1 CALLDATASIZE SUB DUP2 ADD SWAP1 PUSH2 0xAD SWAP2 SWAP1 PUSH2 0x202 JUMP JUMPDEST PUSH2 0x156 JUMP JUMPDEST PUSH1 0x40 MLOAD PUSH2 0xBF SWAP2 SWAP1 PUSH2 0x1BB JUMP JUMPDEST PUSH1 0x40 MLOAD DUP1 SWAP2 SUB SWAP1 RETURN JUMPDEST CALLVALUE DUP1 ISZERO PUSH2 0xD3 JUMPI PUSH0 PUSH0 REVERT JUMPDEST POP PUSH2 0xDC PUSH2 0x16B JUMP JUMPDEST STOP JUMPDEST CALLVALUE DUP1 ISZERO PUSH2 0xE9 JUMPI PUSH0 PUSH0 REVERT JUMPDEST POP PUSH2 0xF2 PUSH2 0x175 JUMP JUMPDEST PUSH1 0x40 MLOAD PUSH2 0xFF SWAP2 SWAP1 PUSH2 0x1BB JUMP JUMPDEST PUSH1 0x40 MLOAD DUP1 SWAP2 SUB SWAP1 RETURN JUMPDEST CALLVALUE DUP1 ISZERO PUSH2 0x113 JUMPI PUSH0 PUSH0 REVERT JUMPDEST POP PUSH2 0x11C PUSH2 0x189 JUMP JUMPDEST PUSH1 0x40 MLOAD PUSH2 0x129 SWAP2 SWAP1 PUSH2 0x1BB JUMP JUMPDEST PUSH1 0x40 MLOAD DUP1 SWAP2 SUB SWAP1 RETURN JUMPDEST PUSH0 PUSH2 0x13B PUSH2 0x18E JUMP JUMPDEST SELFBALANCE SWAP1 POP SWAP1 JUMP JUMPDEST PUSH1 0x1 PUSH0 SLOAD PUSH2 0x14F SWAP2 SWAP1 PUSH2 0x25A JUMP JUMPDEST PUSH0 DUP2 SWAP1 SSTORE POP JUMP JUMPDEST PUSH0 PUSH1 0x1 DUP3 PUSH2 0x164 SWAP2 SWAP1 PUSH2 0x25A JUMP JUMPDEST SWAP1 POP SWAP2 SWAP1 POP JUMP JUMPDEST PUSH2 0x173 PUSH2 0x18E JUMP JUMPDEST JUMP JUMPDEST PUSH0 PUSH1 0x1 PUSH0 SLOAD PUSH2 0x184 SWAP2 SWAP1 PUSH2 0x25A JUMP JUMPDEST SWAP1 POP SWAP1 JUMP JUMPDEST PUSH0 SLOAD DUP2 JUMP JUMPDEST PUSH1 0x1 PUSH0 SLOAD PUSH2 0x19C SWAP2 SWAP1 PUSH2 0x25A JUMP JUMPDEST PUSH0 DUP2 SWAP1 SSTORE POP JUMP JUMPDEST PUSH0 DUP2 SWAP1 POP SWAP2 SWAP1 POP JUMP JUMPDEST PUSH2 0x1B5 DUP2 PUSH2 0x1A3 JUMP JUMPDEST DUP3 MSTORE POP POP JUMP JUMPDEST PUSH0 PUSH1 0x20 DUP3 ADD SWAP1 POP PUSH2 0x1CE PUSH0 DUP4 ADD DUP5 PUSH2 0x1AC JUMP JUMPDEST SWAP3 SWAP2 POP POP JUMP JUMPDEST PUSH0 PUSH0 REVERT JUMPDEST PUSH2 0x1E1 DUP2 PUSH2 0x1A3 JUMP JUMPDEST DUP2 EQ PUSH2 0x1EB JUMPI PUSH0 PUSH0 REVERT JUMPDEST POP JUMP JUMPDEST PUSH0 DUP2 CALLDATALOAD SWAP1 POP PUSH2 0x1FC DUP2 PUSH2 0x1D8 JUMP JUMPDEST SWAP3 SWAP2 POP POP JUMP JUMPDEST PUSH0 PUSH1 0x20 DUP3 DUP5 SUB SLT ISZERO PUSH2 0x217 JUMPI PUSH2 0x216 PUSH2 0x1D4 JUMP JUMPDEST JUMPDEST PUSH0 PUSH2 0x224 DUP5 DUP3 DUP6 ADD PUSH2 0x1EE JUMP JUMPDEST SWAP2 POP POP SWAP3 SWAP2 POP POP JUMP JUMPDEST PUSH32 0x4E487B7100000000000000000000000000000000000000000000000000000000 PUSH0 MSTORE PUSH1 0x11 PUSH1 0x4 MSTORE PUSH1 0x24 PUSH0 REVERT JUMPDEST PUSH0 PUSH2 0x264 DUP3 PUSH2 0x1A3 JUMP JUMPDEST SWAP2 POP PUSH2 0x26F DUP4 PUSH2 0x1A3 JUMP JUMPDEST SWAP3 POP DUP3 DUP3 ADD SWAP1 POP DUP1 DUP3 GT ISZERO PUSH2 0x287 JUMPI PUSH2 0x286 PUSH2 0x22D JUMP JUMPDEST JUMPDEST SWAP3 SWAP2 POP POP JUMP INVALID LOG2 PUSH5 0x6970667358 0x22 SLT KECCAK256 0x2E RJUMPI 0xC06F PUSH21 0xA1842F1CE489B7A8684DAB65F80E14447946C04CB9 SWAP7 0xC5 DUP5 RETURN RETURN 0x4E PUSH5 0x736F6C6343 STOP ADDMOD 0x1E STOP CALLER "
				},
				"gasEstimates": {
					"creation": {
						"codeDepositCost": "141400",
						"executionCost": "22293",
						"totalCost": "163693"
					},
					"external": {
						"_number()": "2512",
						"add()": "infinite",
						"addPure(uint256)": "infinite",
						"addView()": "infinite",
						"minusCall()": "infinite",
						"minusPayable()": "infinite"
					},
					"internal": {
						"minus()": "infinite"
					}
				},
				"methodIdentifiers": {
					"_number()": "f9bd55cc",
					"add()": "4f2be91f",
					"addPure(uint256)": "7032c4f2",
					"addView()": "b262eb7f",
					"minusCall()": "80b4ea08",
					"minusPayable()": "303810a6"
				}
			},
			"storageLayout": {
				"storage": [
					{
						"astId": 4,
						"contract": "contracts/5_FunctionType.sol:FunctionType",
						"label": "_number",
						"offset": 0,
						"slot": "0",
						"type": "t_uint256"
					}
				],
				"types": {
					"t_uint256": {
						"encoding": "inplace",
						"label": "uint256",
						"numberOfBytes": "32"
					}
				}
			},
			"userdoc": {
				"kind": "user",
				"methods": {},
				"version": 1
			}
		}
	}
}